:020000040800F2
:10000000C0070020590100086101000863010008D1
:1000100000000000000000000000000000000000E0
:100020000000000000000000000000006501000862
:100030000000000000000000670100085D330008B8
:100040006B010008000000006B0100086B01000854
:100050006B0100086B0100086B0100086B010008D0
:10006000000000006B0100086B0100086B01000834
:100070006B0100086B0100086B0100080000000024
:100080006B01000800000000000000006B01000888
:100090006B0100086B0100086B0100086B01000890
:1000A0006B0100086B0100086B010008C5370008F0
:1000B0006B01000800F002F800F03EF80CA030C818
:1000C000083824182D18A246671EAB4654465D46D4
:1000D000AC4201D100F030F87E460F3E0FCCB64660
:1000E0000126334200D0FB1AA246AB4633431847E1
:1000F000E846000008470000103A02D378C878C1EB
:10010000FAD8520701D330C830C101D504680C6059
:10011000704700000023002400250026103A01D378
:1001200078C1FBD8520700D330C100D50B607047AF
:100130001FB51FBD10B510BD01F036F81146FFF711
:10014000F7FF04F01DF801F04EF803B4FFF7F2FFDB
:1001500003BC01F08BF800000748804707480047C0
:10016000FEE7FEE7FEE7FEE7FEE7FEE70448054997
:10017000054A064B7047000019340008B500000816
:10018000C0010020C0070020C0030020C0030020E1
:10019000002203098B422CD3030A8B4211D3002384
:1001A0009C464EE003460B433CD4002243088B425E
:1001B00031D303098B421CD3030A8B4201D39446EB
:1001C0003FE0C3098B4201D3CB01C01A52418309DE
:1001D0008B4201D38B01C01A524143098B4201D398
:1001E0004B01C01A524103098B4201D30B01C01AC3
:1001F0005241C3088B4201D3CB00C01A524183083D
:100200008B4201D38B00C01A524143088B4201D369
:100210004B00C01A5241411A00D2014652411046C9
:1002200070475DE0CA0F00D04942031000D340423E
:10023000534000229C4603098B422DD3030A8B4274
:1002400012D3FC22890112BA030A8B420CD3890112
:1002500092118B4208D3890192118B4204D38901F8
:100260003AD0921100E08909C3098B4201D3CB0136
:10027000C01A524183098B4201D38B01C01A5241EB
:1002800043098B4201D34B01C01A524103098B42EF
:1002900001D30B01C01A5241C3088B4201D3CB00DA
:1002A000C01A524183088B4201D38B00C01A5241BD
:1002B000D9D243088B4201D34B00C01A5241411A94
:1002C00000D20146634652415B10104601D34042C2
:1002D000002B00D54942704763465B1000D3404273
:1002E00001B50020C046C04602BD70477047704748
:1002F0000246C80FC00781434B0030B54B405B003E
:100300009B0D20D01923DB06C91801231B05994238
:1003100020DB0324A40704251346AB400BD3002B9A
:1003200004D1EB0613409B00E34204D4012464078C
:10033000002312195941FF231B0599420BD2C90012
:100340000143500F09E0CB0204D5014308030243E7
:1003500005D0054830BDFF21C905084330BD08461A
:1003600007210905884330BD0000C07FF0B50C4669
:10037000871A9C410D46861A9D4103D2C01BA1419C
:10038000D21963410D0D1F0DC94EEC1BAE435CD05D
:100390007F057F0D0026002F51D02D05AC46A943C7
:1003A000DD020123ED0A1B051D4320231B1B24D462
:1003B0001746E740381871412F46E740CC199D4059
:1003C0002818314661410C0D27D161449A4013D55C
:1003D0000023401C594152000ED140084000012228
:1003E0004B005205D34207D305204007C14201D537
:1003F000B04900E0B0493046F0BD6B00002A00D0A3
:1004000001229A181F23203C1B1B01D5002302E068
:10041000E540281871410C0DD7D001242405091995
:10042000C407CD0740084908E40F28436144002C65
:10043000D5D00024401C61419A40D0D1CDE76A0557
:10044000520DD9D1C90FC907D5E79C4D4E000028E0
:1004500001D0012400E0002434195F00002A01D0FB
:10046000012600E00026BE19954FAC420CD8AE42E2
:100470000AD8B44206D001256D05EC42BCD0104626
:100480001946F0BD9942FCD000203946F0BDF0B5C8
:100490001FB40C460F46811A9F412546861A9D417E
:1004A00006D20125ED076F40401ABC4152187B412E
:1004B000210D1E0D8D1BAC467D4D8D437ED07505E7
:1004C0006D0D7CD00D05AE46AC431B031B0B794D67
:1004D00052429D41202366469B1B14D31746F7408A
:1004E000381800260090744160462F460741E419F1
:1004F00000989D402818664116D4714671189A409C
:1005000025D5012320E093182A466A415200002B8A
:1005100000D0521C1E23203E9B1B002B61DD354169
:10052000EE1728186641E8D5001876415B1C9A4002
:1005300000D3401C4B05F3181524E34010D3002BC7
:1005400052D071467118D30FC01802D3491C05B0A0
:10055000F0BD0123DB079A42F9D140084000F6E7DD
:1005600001225205B21801D1002853D00123CC0A30
:10057000DB029943891E002A08D1020C03D0020C29
:100580000004103902E00246002020390023550BF8
:1005900005D112020823550B01D152010D23550C30
:1005A00001D112011B1DD50C01D192009B1C150D10
:1005B00001D152005B1C2025EE1A01E02CE022E064
:1005C0000546F54015439840CA1AE1076918130516
:1005D000C918002ABBDA032040070818C10FC90751
:1005E0000FE071466118B2E7F10740080843711047
:1005F00071444A000CD001235B059A42A7D2C90F6F
:10060000C9070020A3E74905490D26D1002001E0D4
:100610000028F4D100219AE7284D6600002801D077
:10062000012100E0002171185F00002A01D001269D
:1006300000E00026BE19224FA94210D8AE420ED8C3
:10064000B14208D001256D05E94206D01946A8023D
:10065000414010467BE79C4201D0214677E70020CD
:10066000394674E710B50C465C4005D50124E40713
:100670006340FFF70CFF10BDFFF778FE10BD30B4EC
:100680000C465C4004D50124E407634030BC6DE6B1
:1006900030BCFCE670B50124E40761400D465D40C6
:1006A00002D4FFF763FE70BD6340FFF7F0FE70BD3C
:1006B000FF0700000000F0FF0000F07F0000E0FFF7
:1006C0000000F87FF0B5F94D0C091E092C402E40B2
:1006D0002F468BB0A7437DD0B543FCD0002E7AD0F7
:1006E000002CFCD00D465D40ED0F2543AC1BFF25D3
:1006F000AD0464190894C502440DC9022143500D8C
:10070000DC0204430120C00701430443D2020191EB
:10071000200C110C00958C46010423468B430A9152
:1007200061460904E24D8A430991010A7D44491951
:100730008039097805464D4301266D18F605751B6D
:100740006943C90C640B891C4C436418B5012C1B0C
:10075000250C2E04B4434C434D43210C69188909E0
:100760000591009DE90701D00121C90704912C469C
:1007700001996708CD072F434C08059DE10B4D43B8
:100780002D0C29466646754302950D4645432E4677
:10079000029D7D1BB44100950D465D4301942C0CD8
:1007A0002F040D465543AE462D0C3D430295039450
:1007B0007546049C2D04641B049406D2029C039D80
:1007C000641C002675410395029401AC70CC009F17
:1007D0007D1B01E03EE162E1B4410904009507910F
:1007E00001940599A4086143090C0C464443650B28
:1007F000E7040C4666467443A646640B3C430395E7
:1008000002947446049DE4042C1B049406D2029CBA
:10081000039D641C002675410395029401AC70CCC5
:10082000009F7D1BB44101940C465C430095650F0D
:10083000E7000C465443A646640F3C4303950294DC
:100840007446049DE4002C1B049406D2029C039D74
:10085000641C002675410395029401AC70CC009F86
:100860007D1BB441AE09AF06049DC900AD092F43FD
:10087000049DA406AD060495079D344369180791AD
:10088000059DE10B4D432D0C2946664675430295A7
:100890000D4645432E46029D7D1BB44100950D46F5
:1008A0005D4301942C0C2F040D465543AE462D0C90
:1008B0003D43029503947546049C2D04641B0494E7
:1008C00006D2029C039D641C002675410395029488
:1008D00001AC70CC009F7D1BB44101948C05069443
:1008E000079C890A611800950791019C0599A40845
:1008F0006143090C0D464543680BEF040D46644601
:1009000065436C0B3C43049FED047D1BAC4602D257
:100910000025641C6841009E019D371B85410846E7
:10092000584301950C46460FC5005443600F2843B9
:100930006546E4002C1B02D20025401C6E41019D3F
:100940003F1AB5412846BD09800628438446A009C0
:10095000BF064E020699A40676180743079D00209D
:1009600068410A99079019430020099B009060464E
:10097000FF1913434041E20F64003A43A446044682
:10098000D71A8C41A04203D90120009020463A4654
:10099000C70F941840416246D20F22436446640058
:1009A0000494009CBE466400D71AA44604460297ED
:1009B0008C417746002F01D1A04204D96046401CEB
:1009C0008446029A2046C40FA64694184041049AD1
:1009D0000546D20F224364466400D31A8D41714606
:1009E000002901D1A84202D928461A46641C1043A6
:1009F0000122002800D0164361020020079B8919BC
:100A000004465C410223002C02DB49181346644172
:100A1000089DCE0A2D145D194B056705E10A2C05CA
:100A20000D1908993E43C9076940002B08D093402F
:100A300006D30022761C5141002B01D176087600A6
:100A40001C4A002D43DB154241D0AA433FD030461B
:100A50000BB0F0BD06180D464D41174C7642AC4127
:100A60001AD395181C465C41134A6D42A24113D318
:100A7000012252054C00D4420AD15C00D4420BD072
:100A80004B4002D592021143E2E749004908DFE7F3
:100A90005940C90FC90718E000200849D8E70548A0
:100AA00001420DD10342F7D0F2E700000000FF073A
:100AB000A43F00000000F07F0000E0FF0000F87F8E
:100AC000114859400143C01241400020C0E70123B2
:100AD000089A9B069A4205DC032252078918C90F1F
:100AE000C907B5E7052252078918074A1143D212F0
:100AF0005140ADE770B515461C4602460B462846E8
:100B00002146FFF7DFFD70BDFFFFFF7F0121C90513
:100B10000123411842001B06D3185B0E0AD0C110F6
:100B20000722D206891840075242D14201D552000D
:100B300089187047090208D50146002A03D0C10F61
:100B4000C9070020704710467047420202D00020BB
:100B500002497047072109050143F4E70000F87FC7
:100B6000F0B5FF252D04C609C209FF2704462E4013
:100B70000137CB093E4348402A402B400746002A14
:100B80006BD0002B69D0AA4267D0AB4265D0002859
:100B900000DA32460125ED0529432C4309022002E3
:100BA000090AD21A4B0C7F24E31A434C000A7C44F6
:100BB000E35C7D242404121914145B00A2188842FB
:100BC00001D3521C00E0400049420C465C43241112
:100BD0005C43DB016415E318040A5C43C502200D85
:100BE0000C4644436419250A5D432303EC0C0D466F
:100BF000654300030019EB184C42A34201D35B1874
:100C0000401CD4052018002B07D05B00C91804D362
:100C1000401C002901D1400840003F2189048A423C
:100C200009D3002A08DC1106090F04D00321490763
:100C30004018C00FC007F0BD0122410012068918FC
:100C40007F2252069142F6D205214907C84201D5BA
:100C50009010F0BDFF20C005F0BD002F00DA324635
:100C60001648AA4207D2AB4205D21902090E17D084
:100C7000F80FC007F0BDFF2563002D06AB42F9D881
:100C80004900A942F6D8AB4201D1A942F2D0A9420B
:100C900001D1002101E061004908D0050843F0BD01
:100CA0001102090EFBD0FF200243D005F0BD0A4619
:100CB0000146104654E70000A23B00000000C07F40
:100CC0000102C21504D00123DB071943002A0ADB05
:100CD0009E239A1A02D40846D0407047FF22410052
:100CE0001206914201D900207047C017C0437047D7
:100CF0001F22030C02D10F2200041CD0030E01D1CD
:100D00000002083A030F01D10001121F830F01D125
:100D10008000921E002801DB4000521ED2055118AF
:100D2000021251181922904004D3491C002801D105
:100D30004908490008467047C10FC90700D0404222
:100D4000012292071143D3E701218907D0E710B5AB
:100D500000F0BAF9006810BD10B5044600F0B4F90F
:100D6000046010BD1F22030C02D10F22000402D028
:100D7000030E03D004E00020014670470002083A49
:100D8000030F01D10001121F830F01D18000921EB9
:100D9000002801DB4000521E120551184205C01206
:100DA000411810467047C10FC90700D040420122C8
:100DB00092071143D6E701218907D3E7F0B58B4CA1
:100DC0000F09254689B0BD437BD01D092646AE4399
:100DD000FAD00E465E402740F60F3E43254071D0C4
:100DE00024012142FBD0FF24AD19A4042D1B03953F
:100DF00001252D05DB02DB0AC9022B43C90A294361
:100E00001E010901040F130F050121431701880B6F
:100E1000820391432D098C46A90B1E438A039543F7
:100E2000B30B9A0396433F09BA0B9403A743029668
:100E30002E467E430497B6464E19D7190C460196A6
:100E4000544305977E43371B7646BF1B3601B64693
:100E5000BE0B361900967646BC043719009C01D3A8
:100E6000641C00946400002F01D001263443029ECC
:100E7000049F754366467E430496760034196E00DF
:100E800034190094029C019E1C196643751BAE46E2
:100E9000069465464519059C05956C43594375466E
:100EA0000891691A0191049E01465143A41B0491C3
:100EB000611A009C0791E10605D0610901221143E6
:100EC00002E072E06EE06109089D00272C0A2D0601
:100ED0006918049D7C412A0A2D066918019D62410A
:100EE000AC0DAD026D185441079A910D920255193F
:100EF0006141029A644658435443069B059A5A43FB
:100F0000121A131B9A0E9B015B187A41010B000504
:100F1000C3185141220A200644195A419A4200D26C
:100F2000491C01204002814203D315230226F643C7
:100F300002E014230326F6432020C51AA9401746D1
:100F4000AF40DA400A4320460399D8400914731889
:100F500019055118039A3843D2075140AC4009D0C3
:100F60000122944006D30022401C5141002C01D1A3
:100F7000400840001E4A934212D301220398920671
:100F8000904207DB0520400709181A480143C012A8
:100F9000414004E0032040070818C10FC9070020A2
:100FA00009B0F0BD0020F107FAE705180C464C41E6
:100FB00011486D42A04115D394181A465A410E4863
:100FC000644290410ED301204A004005824209D379
:100FD0005A00824206D35940C90F084AC907002067
:100FE0001143DDE700200649DAE700000000FF07B3
:100FF000FE070000FFFFFF7F0000E0FF0000F07F22
:101000000000F87F70B505464800440D124B0020E3
:10101000002C0AD0634008D09A4206DA6642B242F7
:1010200003DD12054019514170BD002C08D0002B82
:1010300009D0C90FC907002AF6DB084A114370BD61
:10104000C90FC90770BD28460A03104302D000200B
:10105000034970BD284670BDFF0700000000F07F07
:101060000000F87F10B5FF231B0644009C421DD8EA
:101070004C009C421AD80346124A0B4307D4401A2C
:1010800002D3EFF3008010BDEFF3008010BD081A0B
:1010900006D2EFF3008001219043C907084302E024
:1010A000EFF30080904380F3008810BD0D231B04F4
:1010B0001A4204D01146002000F00AF810BD00F0DA
:1010C00067F810BD00000090004870475C010020E8
:1010D000C80212D54803400F002804D0C803C043FB
:1010E000012188407047EFF30080000100090321CF
:1010F0000907084380F3008870470020704700000C
:10110000F8B5224C4E00069DA6420AD8A64201D14F
:10111000002806D15E00A64203D8A6420AD1002AC2
:1011200008D00D24240425422CD029460020FFF7A6
:10113000CFFFF8BD0C461C430CD4994202D0EFF30C
:101140000080F8BD904202D0EFF30080F8BDEFF3CD
:101150000080F8BD09242407E5008B4206D0EFF398
:101160000080A043591A06D2284304E0101A05D380
:10117000EFF30080A04380F30088F8BDEFF3008018
:10118000A043F1E7009500F037F8F8BD0000E0FF5C
:1011900010B5024800F03AF810BD00000000C07F12
:1011A000004870475C0100207546FFF7F9FFAE4626
:1011B000050069465346C008C000854618B020B5F2
:1011C000FEF7D4FF60BC00274908B6460026C0C51C
:1011D000C0C5C0C5C0C5C0C5C0C5C0C5C0C5403DEF
:1011E00049008D46704710B50446C046C0462046AB
:1011F000FEF7ABFF10BD000010B500200249029AB7
:1012000000F004F810BD00000000F87F10B50C4697
:101210001107090F092904D00A290AD008290CD17D
:1012200004E011460820FFF753FF06E0510606D5FB
:1012300001E0510601D50120C007214610BDD106AD
:1012400007D501010909CC084907000E000604432F
:1012500009E0410F20024907000A0143200E000661
:101260001D22D14101430846E7E70000014918204B
:10127000ABBEFEE7260002007047000000203449A4
:101280000870344908600120334908703348806988
:10129000012149020843314988610846406B012118
:1012A00008432E49486300BF2C48406B0221084088
:1012B0000028F9D02A488068C007C00F002805D050
:1012C0002748806840084000254988602448806895
:1012D0000121C90708432249886000BF204880686F
:1012E000C00FC0070028F9D11C48406901214904FA
:1012F00008431A4948610920C00600688008800038
:101300000921C9060860084600680321084309212D
:10131000C906086012488068C007C00F002805D0C1
:101320000F488068400840000D49886006200C493D
:10133000886208468068012108430949886000BF27
:1013400007480068C007C00F0028F9D070470000A8
:10135000700000206C000020690000200010024096
:101360000024014010B586480078042812D004DC1F
:10137000012807D002281AD108E008280ED010282A
:1013800015D10FE002207F49886211E004207D49D9
:1013900088620DE080207B49886209E0402079491D
:1013A000886205E0012040047649886200E000BFC1
:1013B00000BF744840690721084372494861724878
:1013C00080680121890508436F4988606D488068FD
:1013D000042108436B49886000BF6A480068042103
:1013E00008400028F9D06748403000686749086025
:1013F0006448C068042148406249C8606048007879
:10140000042850D004DC012807D002287ED127E030
:1014100008286BD01028F9D18CE05D480078401C7A
:10142000C0B25B4908700B2807D25A480068574978
:10143000096840185749086011E00A2155480068BA
:10144000FEF7A6FE5449C861002051490870514971
:1014500008600120514908700220494908708CE059
:101460004B480078401CC0B2494908700B2807D28D
:10147000484800684549096840184649086011E035
:101480000A2144480068FEF783FE434908620020B1
:101490003F4908703F490860012041490870042015
:1014A0003749087069E03A480078401CC0B23849B2
:1014B00008700B2807D2374800683449096840187B
:1014C0003449086011E00A2132480068FEF760FEE6
:1014D0003149486200202E4908702E4908600120D9
:1014E0003049087008202649087046E028480078EE
:1014F000401CC0B2264908700B2808D22548006855
:101500002249096840182349086012E034E00A21A2
:1015100020480068FEF73CFE1F49886200201C49F5
:1015200008701C49086001201F49087010201449E8
:10153000087022E016480078401CC0B214490870B8
:101540000B2807D213480068104909684018114950
:10155000086010E00A210F480068FEF719FE0E49E6
:10156000C86200200A4908700A49086001200F4932
:1015700008700349087000E000BF00BF10BD000004
:101580006900002000240140002701406000002085
:10159000700000206C000020D400002064000020B7
:1015A0006500002066000020670000206800002021
:1015B00010B514200A4908700020487048730120B3
:1015C00088730020C873002105480174417400200D
:1015D0000449087001F04EFE00210348416210BD2D
:1015E000D4000020060000200C00002010B50C489C
:1015F0000078012812D10B48007806280CD9094838
:10160000007E002808D107480078401E0549087070
:1016100001F0A6FC01F044FE00F090FD10BD0000BA
:10162000CD000020D400002010B50D48007801281E
:1016300015D100200B4948600B480078002809D1DB
:101640000A48807B012808D90848807B401E07494A
:10165000887302E009200549887300F093FD10BDEE
:10166000CD0000200C00002008000020D400002045
:1016700010B513480078012821D1124800780128BC
:1016800008D102200F49087001210E48007800F0AF
:1016900027FE14E00C480078062806D100200B49EC
:1016A0004870012001F0F0FA09E0074800780728A7
:1016B00005D1002001F0E8FA05480649C86310BDCD
:1016C000CD0000205600002054000020D40000204F
:1016D000C05D00000004004010B5074800780428F1
:1016E00008D106480078022804D000200449087078
:1016F00001F062FD10BD0000CD00002006000020BA
:101700000800002010B507480078072808D10648CF
:101710000078022804D001200449087001F04CFD33
:1017200010BD0000CD0000200600002008000020B1
:1017300010B50C480078012812D10B4800781E28FB
:101740000CD20948007E002808D107480078401CC8
:101750000549087001F004FC01F0A2FD00F0EEFC68
:1017600010BD0000CD000020D400002010B50D48B1
:101770000078012815D100200B4948600B480078FB
:10178000002809D10A48807B022808D20848807BBB
:10179000401C0749887302E009200549887300F05E
:1017A000F1FC10BDCD0000200C000020080000203E
:1017B000D400002010B513480078012820D1124829
:1017C0000078002808D101200F49087001210E4837
:1017D000007800F085FD13E00C480078062805D15C
:1017E00001200B49487001F04FFA09E007480078E2
:1017F000072805D1002001F047FA06480649C863CA
:1018000010BD0000CD000020560000205400002034
:10181000D400002060EA00000004004010B52A480F
:10182000007801284FD129480078002802D00128EB
:1018300043D102E001F080FC40E025480078401CE4
:10184000234908700020234948602348007E00286F
:1018500024D11F480078012804D002280CD0032886
:101860001AD111E001201C49487002208870012023
:10187000487300F063FC10E001201749487088703D
:10188000487300F05BFC08E001F0F4FC0021114813
:10189000416100F0B5FD00E000BF0DE00C480078AC
:1018A000012807D101F0E6FC00210A48416100F05F
:1018B000A7FD00E000BF00BF00E000BF00BF01F0D7
:1018C000EFFC01F085F910BDCD00002006000020DE
:1018D000070000200C000020D400002010B50648AE
:1018E0000078012807D10548007BC007C00F0028F9
:1018F00001D001F0BFFC10BDCD000020D4000020BD
:1019000070B5002437480078012841D100203649BD
:1019100048603648817B0F30405C012805D10021AA
:101920003248827B0F30815404E001212F48827BB2
:101930000F3081542D48807B012807D02B48807BB5
:10194000022803D02948807B09281ED12848007826
:101950002849087028480078284908702348007CE6
:101960002249097E490008432049497C89000843EF
:1019700020490978C900084320490978090108432A
:10198000C4B22146012001F02BFA00F0FBFB28E055
:10199000144800780A2824D11448807B002804D0F9
:1019A000012808D002281AD10FE00121144800783C
:1019B00000F096FC14E00D494868FFF781F9C5B2C4
:1019C0000121284600F08CFC0AE008498868FFF7EE
:1019D00077F9C5B20121284600F082FC00BF00BFA4
:1019E00000BF70BDCD0000200C000020D4000020FE
:1019F00009000020020000200A000020030000204F
:101A00000400002010B537480078012868D1364816
:101A10000078030002F016F90862051528384852CC
:101A20005A623248007802280AD103202F490870F0
:101A300001212E48007800F053FC02202A4908704A
:101A40004DE003202849087029494868FFF738F914
:101A5000C4B20121204600F043FC002000F0F0FB5E
:101A6000012000F0E7FB3AE021498868FFF728F9F8
:101A7000C4B20121204600F033FC012000F0DAFB63
:101A80000420194908702AE000F00EF904460121EB
:101A900000F026FC002000F0CDFB012000F0F6FB5A
:101AA0000520114908701AE000F0EAF80446012107
:101AB00000F016FC06200C49087010E000210846D2
:101AC00000F00EFC07200849087008E000210846D5
:101AD00000F006FC07200449087000E000BF00BFCA
:101AE00010BD0000CD000020540000205600002052
:101AF000D400002002460020002108E001238B4092
:101B00001340002B01D0431CD8B24B1CD9B2102972
:101B1000F4D37047002065E08100344A51586529AC
:101B20004DD008DC002913D00A2934D00B2936D037
:101B3000642950D13FE0FF39F539002933D001291C
:101B400035D02B4A891800293DD0012943D13EE0E8
:101B50002849095C04290FD004DC012907D0022997
:101B600013D105E0052908D00B290ED109E000BFEB
:101B70000321204A11540CE000BF06211D4A1154D4
:101B800007E00C211B4A115403E00021194A1154AB
:101B900000BF00BF23E00121164A11541FE00221BB
:101BA000144A11541BE00421124A115417E0052174
:101BB000104A115413E00A210E4A11540FE00B2170
:101BC0000C4A11540BE007210A4A115407E008217E
:101BD000084A115403E00021064A115400BF00BF17
:101BE000411CC8B2052897D3704700004801002067
:101BF00024FAFFFFC700002010B500F029F8FFF716
:101C000089FF00F0ABFC10BD104840690121490478
:101C100008430E4948610920C00600683F21890138
:101C200088430921C90608600846C0683F21890128
:101C300088430921C906C8600846C0681521890182
:101C400008430921C906C86070470000001002401F
:101C500010B500240920C0060069C0438006400F6B
:101C60000649087008460078FFF744FF04462146FD
:101C70000248007801F084FF10BD0000CE00002073
:101C800070B5074C0749886AFFF75EF8064621469B
:101C900002F0D8FB0546FFF713F84006000E70BDB2
:101CA0000000043CD400002070B5074C0749486A86
:101CB000FFF74AF80646214602F0C4FB0546FEF748
:101CC000FFFF4006000E70BD0000043CD400002061
:101CD000F1B58EB00E98FFF737F8064631468B20E7
:101CE000C005FEF73DFF05467F21C90502F02EFC29
:101CF000044621461948FEF733FF0C9018490C980A
:101D0000FEF72EFF0190FEF701FF044602F08EF869
:101D100006460022134BFEF7D5FC134A134B0391E2
:101D20000290FEF79FFC02460B46059104900020AE
:101D30000F49FEF7C7FC032252070E4B079106908E
:101D4000FEF79DFC09910890FEF7D2FA0A490A9025
:101D500002F008FB0B900B980FB0F0BD00401C4642
:101D60000098374700A4AF4045A725E6E1796B3FCF
:101D70000000F03F66A272400000C841F1B58EB08D
:101D80000E98FEF7E1FF064631468B20C005FEF7B0
:101D9000E7FE05467F21C90502F0D8FB044621462F
:101DA0001948FEF7DDFE0C9018490C98FEF7D8FE96
:101DB0000190FEF7ABFE044602F038F8064600221A
:101DC000134BFEF77FFC134A134B03910290FEF76F
:101DD00049FC02460B460591049000200F49FEF78E
:101DE00071FC032252070E4B07910690FEF747FC49
:101DF00009910890FEF77CFA0A490A9002F0B2FABB
:101E00000B900B980FB0F0BD00E0AB460050C347FD
:101E1000005EB04045A725E6E1796B3F0000F03F4A
:101E200066A272400000C84110B51248007803282D
:101E30001FD111480078012807D10121652000F049
:101E40004FFA00200C49087006E00021652000F0E0
:101E500047FA012008490870002000F0EBF9012042
:101E600000F014FA0021084600F024FA002000F0E7
:101E7000E7F910BD06000020AD00002091498969F6
:101E80000F22120711438F4A9161114689697F22FF
:101E9000D20411438B4A91610921C906896952050F
:101EA00011430922D2069161002000E0401C642801
:101EB000FCD385490978002906D0012912D00229CE
:101EC0001FD003293BD12BE07E49896907221207E5
:101ED00011437C4A91611146896952011143794A43
:101EE00091612DE0774989690B2212071143754AE8
:101EF000916111468969012292031143714A9161EE
:101F00001EE0704989690D22120711436D4A9161E3
:101F1000114689690122520311436A4A91610FE017
:101F200068498969072252071143664A916111463F
:101F30008969012212031143624A916100E000BFE6
:101F400000BF6249604A1278895CC907C90F00293D
:101F500009D00921C90689690122D2031143092246
:101F6000D206916108E00921C90689690122D207D8
:101F700011430922D20691615449534A1278895C6F
:101F800002221140002906D04E49896908221143D6
:101F90004C4A916106E04B4989690122D204114300
:101FA000484A91614949484A1278895C04221140A3
:101FB000002906D04349896980221143414A916131
:101FC00006E0404989690122D20511433D4A9161E9
:101FD0003E493D4A1278895C08221140002906D00A
:101FE0003849896940221143364A916106E03549F2
:101FF0008969012292051143324A91613349324A7B
:102000001278895C10221140002906D02D49896977
:10201000202211432B4A916106E02A498969012255
:1020200052051143274A91612849274A1278895C51
:1020300020221140002906D022498969102211432B
:10204000204A916106E01F49896901221205114366
:102050001C4A91611D491C4A1278895C402211403A
:10206000002906D017498969D2001143154A9161A8
:1020700006E014498969012252061143114A91610F
:102080001249114A1278895C80221140002906D039
:102090000C498969520011430A4A916106E00949D5
:1020A0008969012212061143064A9161064909789D
:1020B000491CC9B2044A1170042901D100211170D0
:1020C0007047000000040048AC000020AE00002073
:1020D00016484069012149040843144948611448DD
:1020E000006814490840124908600846006812490F
:1020F00008430F4908600846C0680E4908400C496B
:10210000C8600920C0060068800080080921C9064F
:10211000086008460068C90008430921C90608602C
:102120000846C06880008008C86070470010024000
:10213000000400483F00F0004055055510B50F4918
:102140000878012100F0CCF80C48007E012807D166
:102150000B480078012803D1002000F06BF802E062
:10216000012000F067F8012000F090F800210846F7
:1021700000F0A0F8012000F063F810BDD4000020AA
:102180000600002010B52048807B030001F05AFDB6
:102190000A0607081E1F20212223093800BF00BF9E
:1021A00000BF0121662000F09BF8002000F042F8FB
:1021B000002000F06BF814498A7B0F31885C012104
:1021C00000F078F8002000F03BF81AE000BF00BFF4
:1021D00000BF00BF00BF0021662000F081F8002092
:1021E00000F028F8002000F051F807498A7B0F31F1
:1021F000885C002100F05EF8002000F021F800E08B
:1022000000BF00BF10BD0000D400002010B50021A9
:10221000084600F065F8002000F00CF8002000F0FF
:1022200035F80021084600F045F8002000F008F8D5
:1022300010BD000001498870487170473A010020C4
:10224000012819D10F498978002904D0012907D024
:1022500002290FD10AE000210B4AD17211730AE062
:102260000949C8720021084A117304E00649C8727E
:10227000087300E000BF03E00021034AD17211732C
:1022800070470000D40000203A01002007498871FF
:102290000872887206494978002903D1034AD1712E
:1022A000517202E00149C871487270473A0100203A
:1022B000D400002001290DD1012805D10122074BAE
:1022C000DA7000221A7108E00022044BDA70012251
:1022D0001A7102E0014AD170117170473A01002071
:1022E00070B504460D464148057045704048007E73
:1022F00001280BD13F480078012807D13E48407B98
:102300003E4908703C48407C48706EE01E2C0BD162
:1023100038480078012807D13748C07B3749087012
:102320003548007C487060E0062C0BD131480078BD
:10233000012807D13048807C304908702E48807BC6
:10234000487052E0642C10D20A212046FDF720FF8D
:102350002949085C294908700A212046FDF718FF21
:102360002548405C254948703FE0642C04D0652C2A
:102370000AD0662C37D12BE01F48C07A1F4908705D
:102380001D48C07A48702FE01B48007B1B4908702D
:102390001748007BC007C00F002803D016484078BC
:1023A000487014E01248007B02210840002804D045
:1023B000114880781149487009E00D48007B0421DC
:1023C0000840002803D00C48C0780C4948700BE046
:1023D0000948407B094908700548807B0649085C2C
:1023E0000649487000E000BF00BF70BD3A01002000
:1023F000D400002006000020B4000020B20000201D
:1024000010B5164948690A21FDF7C2FE3C21081A99
:10241000C4B2124840691249884204D201212046C0
:10242000FFF75EFF03E001216420FFF759FF002062
:10243000FFF700FF094840690949884203D201209B
:10244000FFF724FF02E00020FFF720FF00210846ED
:10245000FFF730FF0020FFF7F3FE10BD0C00002057
:102460005702000010B5002414E00C48005D00285D
:1024700002D001280AD104E02046094909688847AA
:1024800005E0204607490968884700E000BF00BF13
:10249000601CC4B20D2CE8DB10BD00003A01002026
:1024A000D0460008CC460008704710B500F0C8FEC2
:1024B00010BD000000B50246042A24DA9002124939
:1024C000431800F031F811480069022108430F4910
:1024D0000861084643610069402108430B490861CF
:1024E00000BF0A48C068C007C00F0028F9D10748DC
:1024F000C068302108430549C860084600690221C8
:1025000088430249086100BD00F000080020024035
:1025100030B50446204600F03FFA0546002D02D1B2
:102520002046FFF7C7FF30BD00BF0948C068C0079D
:10253000C00F0028F9D10648006980210840002812
:1025400004D00448024948600348486070470000CE
:102550000020024023016745AB89EFCD10B5002470
:1025600015E00D48005D00280FD00B48005D0B49B9
:1025700008700B4804700B4909788A0089180919FA
:102580008900094A5058804710BD601CC4B2052C10
:10259000E7D300BFF8E70000C7000020CD0000200F
:1025A000CC000020060000203846000810B5FFF7D8
:1025B0003BFC1148007802281DD00F480078052800
:1025C00019D00D48007803280BD10C48007B002857
:1025D00007D100F04FFE002109484161FFF710FFCD
:1025E00009E005480078032805D00448007B00284E
:1025F00001D000F08BFD10BD06000020D4000020AB
:102600000C00002010B5002000F0AEF9012843D0E6
:102610005648406863283FD15548007802282CD19D
:102620005448007E012806D153480078012802D181
:1026300000F020FE30E000F07FFD504800784D496A
:1026400088704F48007848700120487300F0C0FA45
:10265000FFF774FD4748807801280AD14548407843
:10266000002802D14749087016E002204549087049
:1026700012E00120434908700EE03D48007801282F
:102680000AD13C48007E012803D100203D49087052
:1026900002E002203B490870012000F065F90128A2
:1026A0001ED03248C06805281AD137480078012862
:1026B00013D12F480078002803D1022000F0F6FA49
:1026C0000EE02C484078012803D1022000F0EEFAF9
:1026D00006E0012000F0EAFA02E0002000F0E6FA4D
:1026E000022000F041F901282AD021480078002872
:1026F00022D11E484069254988420FD21B494869AA
:102700000A21FDF745FD002901D1FFF779FE0120DF
:1027100000F0BAFA022000F0C9FA11E0134840694B
:102720001A4988420CD1002000F0AEFA002000F0D7
:10273000BDFAFFF765FE03E04B21C9000B4841617C
:10274000032000F011F901280CD009480078012875
:1027500008D10648C0690D49884203D100F038FA13
:10276000FFF7ECFC042000F0FFF810BD0C00002087
:1027700006000020D40000200800002009000020EE
:102780000A0000200700002034000020570200004B
:1027900010B51D48406A4B21C900884200D110BDC8
:1027A00000242DE019480078012817D11848007836
:1027B000002813D1A000174909581748005D401C94
:1027C000085C16490978884205D11348005D401C11
:1027D0001149085502E000200F4908550E48005DD8
:1027E000A1000C4A51580978884207D1A1000C4A2F
:1027F000505880474B21C90003484162601CC4B255
:10280000002CCFD000BFCAE70C000020CD00002074
:1028100006000020580000205C000020CC000020B2
:10282000B846000870B52448C56B244800780528D0
:1028300041D023488078002802D1224908600AE06C
:102840001F488078012803D11F481E49086002E014
:102850001E481C4908601A48407B01281DD100F021
:102860000DFB04460A212046FDF792FC05290AD9F2
:102870000A212046FDF78CFC401C0A2148430446EF
:102880000D48C4630CE00A212046FDF781FC0A21B3
:10289000484304460848C46302E000200649C86370
:1028A0000548C06B002806D000210948C161002DF1
:1028B00001D100F08DF970BD000400400600002039
:1028C000D40000203C000020C05D000060EA000051
:1028D0000C0000201F4840690121890408431D495C
:1028E00048610846C069022108431A49C8611A486C
:1028F00000688008800018490860084600680221C6
:102900000843154908600846006A01210843124936
:1029100008621248124988621248C8620120C863DE
:102920006820C861881508620D4840304068C913A6
:1029300008430B4940314860094800682121084399
:102940000749086008464069012108430449486175
:10295000704700000010024000040048A08C0000F6
:102960000004004060EA00000146C800094A8018DF
:102970004068CA00074B9A58904209D2C8001A46CC
:1029800080184068401CCA00D21850600020704770
:102990000120FCE70C00002030B502460849002366
:1029A00001209402611805E010C9641C002C01D0BC
:1029B000002003E01C465B1CFF2CF5D900BF30BD96
:1029C00000F0000810B50146CB00044C1B19DA1DBD
:1029D00000201378FF2B00D1012010BD00F000086B
:1029E00000B5030001F02EF90D080C10171E25325A
:1029F0003940474E555C630000212E4A117057E064
:102A000000212C4A517053E02A498978FE22114056
:102A1000284A91704CE027498978FD221140254AC7
:102A2000917045E023498978FB221140214A917039
:102A30003EE0204989784907490F1E4A91701146A6
:102A4000C978FE2211401B4AD17031E01949C9787A
:102A5000FD221140174AD1702AE01649C978FB229D
:102A60001140144AD17023E01249C978F72211406D
:102A7000104AD1701CE00F49C978EF2211400D4A6D
:102A8000D17015E00B49C978DF221140094AD17095
:102A90000EE00849C978BF221140064AD17007E00C
:102AA0000449C9784906490E024AD17000E000BFC6
:102AB00000BF00BDAE00002000B5030001F0C2F869
:102AC0000D080D12192027343B424950575E65000E
:102AD0002F4909782F4A117058E02D4949782D4A1D
:102AE000517053E02B49897801221143294A917092
:102AF0004CE02849897802221143264A917045E02A
:102B00002449897804221143224A91703EE02149E8
:102B10008978F82211431F4A91701146C978012221
:102B200011431C4AD17031E01A49C978022211437D
:102B3000184AD1702AE01749C97804221143154A6E
:102B4000D17023E01349C97808221143114AD1708A
:102B50001CE01049C978102211430E4AD17015E0CB
:102B60000C49C978202211430A4AD1700EE0094964
:102B7000C97840221143074AD17007E00549C97856
:102B800080221143034AD17000E000BF00BF00BDA6
:102B9000B2000020AE0000200B480078012812D1BE
:102BA0000A4840698007C00F002806D007484069DE
:102BB000FD2108400549486105E0044840690221BB
:102BC000084302494861704735000020000400486E
:102BD00000B514480078002806D0012809D0022842
:102BE00003D003281AD115E019E0012000F04CF8B9
:102BF00015E00D48C0690D49884203D30C48407C5C
:102C0000012803D1012000F03FF802E0002000F08D
:102C10003BF804E0012000F037F800E000BF00BFFF
:102C200000BD0000060000200C000020570200003C
:102C3000D40000201248406901218904084310494A
:102C4000486110480068042108430E49086008469E
:102C50004068022188430B4948600846C0680C213F
:102C600088430849C8600846C068042108430549EC
:102C7000C86008464069FD21084002494861704724
:102C80000010024000040048012803D10121054A38
:102C9000117002E00021034A117000220249CA604B
:102CA00070470000340000200C000020002804D0F1
:102CB000012818D0022830D119E0194909680422E6
:102CC0001143174A11601146C96804221143144A7E
:102CD000D16011464969FD221140114A516100211C
:102CE000104A11701AE001210E4A117016E00C49C9
:102CF0000968042211430A4A11601146C968042276
:102D00001143074AD1601146496902221143044A1E
:102D100051610021034A117000E000BF00BF7047FD
:102D2000000400483500002030B50020FFF74AFEBF
:102D300000281FD02748FFF745FE00280DD00020AF
:102D4000C04325490880002404E02046621C94B258
:102D5000FFF7DEFB042CF8DB2CE01E481E49088040
:102D6000002404E02046621C94B2FFF7D1FB032C40
:102D7000F8DB1FE0012507E02846FFF723FE0028C7
:102D800000D005E0681C85B2012040028542F3DBDB
:102D900000BF681E104908800888C117490E09182D
:102DA000C9114C1C04E02046621C94B2FFF7B0FB32
:102DB000042CF8DB084800880849884203D1002029
:102DC00000F080F903E00448008800F07BF900F08F
:102DD0002DFF30BDFF01000080000020FFFF00003C
:102DE000F0B505460E461A48405DB0422FD0072D7B
:102DF0002DDA17484655174800881749884206D1EA
:102E0000002000F075FA0020124908801FE01149E7
:102E10000988481CC117C90D091849124902441AEA
:102E2000002C0FD10020FFF773FBA0B200F060FA76
:102E3000012704E039467F1C88B2FFF769FB042FA5
:102E4000F8D302E0A0B200F053FA02490C80F0BDC2
:102E5000A000002080000020FFFF000010B500F05F
:102E60002DFBFFF7E7FEFEF7CFFEFEF707FAFFF7B1
:102E70002FF9FFF72FFD00F053FC10BD70B52E4960
:102E80000978481EFDF760FF05462B484168284633
:102E900001F030FB04D200F063F82848006870BDF0
:102EA00025490878FDF750FF054623484168284624
:102EB00001F09EFA03D8002021490860EFE71E497F
:102EC0000878FDF741FF05461B484168284601F098
:102ED0003DFB1C4908601C4801681A48006801F065
:102EE000B1FA054616480168284601F03BFA144934
:102EF0000860164801681248006801F0A3FA054608
:102F0000134801680F48006801F09CFA06462946FC
:102F100001F028FA04460F49204601F093FA0446CE
:102F20002046FDF7CDFE0C490968484305460B498C
:102F3000FDF72EF9B3E70000D40000203C0000208C
:102F4000500000204C0000204800002044000020D9
:102F50004000002000401C463800002010270000E0
:102F600070B500201D4908601D490878FDF7ECFE8A
:102F700005461B484168284601F0E8FA19490860EF
:102F8000194801681748006801F05CFA05461348C3
:102F90000168284601F0E6F9104908601348016805
:102FA0000E48006801F04EFA0546114801680D48C8
:102FB000006801F047FA0646294601F0D3F90446B5
:102FC0000C480068FDF7C0FE06462146FDF7C8FD27
:102FD0000546FDF775FE0849086070BD50000020E9
:102FE000D40000204C0000204800002044000020B5
:102FF000400000203C0000203800002010B52B4885
:103000000078042850D12A480078002833D1294874
:103010000078072809D2012027490870254801783F
:10302000012088402549087025E0224800780728BB
:1030300011D3204800780E280DD201201E49487077
:10304000002008701B480078C01F01218140C8B2D1
:103050001A4948700FE00121164800780C38164ACA
:103060001154144800780C38002804D0002111486D
:1030700000780D3811540F480078401C0D49087035
:103080000846007819280FD11A2008700120084935
:10309000087000200A490870012109480078FFF7EC
:1030A0001FF90120FFF7CCF810BD0000060000203A
:1030B00054000020550000203A010020B2000020FA
:1030C0005600002030B5C400054D6119054A0023A3
:1030D00001E010C910C21C465B1C022CF9D330BDA4
:1030E00000F00008A00000200648807806494870DB
:1030F0000448C07848730348007908700148407953
:1031000088707047A0000020D400002010B5032074
:103110000649087000200649487301204870054997
:103120000870FEF781FEFFF753FD10BD060000207A
:10313000D4000020AD00002010B50120184908700F
:103140001849487300201849486000211648C16199
:103150001448007E012814D114480078012802D1B7
:103160001049887002E002200E49887010480078EB
:10317000002802D10B49487008E001200949487035
:1031800004E00120074988700020487000200949A8
:103190000870FFF7E5FEFFF71BFDFEF7CFFF10BD40
:1031A00006000020D40000200C00002002000020B7
:1031B000030000200700002010B502201649087007
:1031C000002016494873084680781549087013484E
:1031D00040781449087011488078134908700F48E6
:1031E000407812490870124800781249087001208E
:1031F0000A49487010480078012802D109208873D4
:1032000002E001200549887300200C494860FEF760
:10321000B9FFFFF7DDFC10BD06000020D400002040
:10322000090000200A000020020000200300002006
:10323000070000200B000020080000200C000020E8
:1032400010B504200549087000200549087005499B
:10325000487301204870FEF7D9FF10BD060000201A
:1032600054000020D4000020052001490870704758
:103270000600002010B50020064908700649487372
:10328000012048700020887004490870FFF7B8F8E2
:1032900010BD000006000020D40000200700002020
:1032A00010B511480078012804D101210620FFF74C
:1032B00097FD03E000210620FFF792FD0B484178BF
:1032C0000220FFF78DFD0948417B0320FFF788FDB1
:1032D000064801780420FFF783FD04488178052023
:1032E000FFF77EFD10BD000006000020D400002086
:1032F00030B50246164BD000164944180025AA20C6
:103300001946C871FFF710F91348006901210843F5
:103310001149086110E0188820809B1CA41C00BF84
:103320000D48C068C007C00F0028F9D10A48C0681E
:10333000342108430849C86028466D1C0428EAD394
:1033400005480069400840000349086130BD00009D
:10335000A000002000F000080020024010B500F09E
:1033600033F9FEF78BFD10BDF8B5002500240026CB
:103370000027244840680C2108400546002D04D051
:10338000042D06D0082D2BD107E01F481F490860E7
:103390002AE01D481D49086026E01A4840680F21B0
:1033A0008904084004461748406801210904084080
:1033B0000646A00C841C1348C06A0007000F471C77
:1033C0000846864207D139460F48FCF7E1FE6043C4
:1033D0000E49086003E00E4860430C49086003E0B2
:1033E00009480A49086000BF00BF06484068F0214C
:1033F0000840000907490D5C04480068E84003499B
:103400000860F8BD0010024000127A00A8000020F9
:1034100000093D00BC460008194800680121084326
:103420001749086008464068164908401449486032
:1034300008460068144908401149086008460068B9
:103440000121890488430E490860084640683F21ED
:10345000090488430A4948600846C06A0009000117
:10346000C8620846006BFF21143188430449086391
:103470000846406B40084000486300208860704761
:10348000001002400CB8FF08FFFFF6FE01460122C3
:103490008A40044B1B781A401046002800DD0120AA
:1034A000704700000500002001218140024A127887
:1034B0008A4301490A7070470500002010B53D4855
:1034C0000068012108433B49086000BF3948006893
:1034D000022108400028F9D000203649486000BF8A
:1034E000344840680C2108400028F9D110203249A6
:1034F000086008460068012108432F4908602D48EC
:1035000040682C49486008464068486008460068A2
:1035100001210906884327490860084640683F2181
:103520000904884323494860084640680521C904C6
:1035300008432049486008460068012109060843FD
:103540001C49086000E000BF1A48006801214906D4
:1035500008400028F7D017484068800880001549C7
:10356000486008464068022108431249486000BF8D
:10357000104840680C2108400828F9D1FFF7F4FEF4
:103580007D2109010D480068FCF702FE0446601E1B
:103590000B49884200D90CE0601E0A4948610321AA
:1035A000081F00F05DFB00200649886107200861C4
:1035B00000BF10BD0010024000200240A800002003
:1035C000FFFFFF0000E000E003480078012108430E
:1035D00001490870704700000500002001201CE030
:1035E00081000F4A5158491C82000D4B99508100AF
:1035F0001A46515882000B4B9A5891420BD3012125
:103600008140C9B2084A12781143074A117000215B
:103610008200034B9950411CC8B20728E0DB704779
:10362000040100201C4600080500002035490969F6
:103630004907C80F002819D133490978092915D23B
:1036400031490978491C304A117000212F4A117004
:103650002F49C96B002905D02E490978491C2D4AEC
:10366000117014E000212B4A117010E001280ED1D6
:103670002649097814290ADA0021234A11702349BE
:103680000978491C214A11700021224A11701F49F2
:103690000978142908D12049097BFC2211401E4ACF
:1036A000117300211D4A117017490978092927D182
:1036B00015490978491C144A1170164909780929D5
:1036C0000FDB1549097BFC221140134A1173114687
:1036D000097B01221143104A117301210F4A117015
:1036E0000EE00D49097BFC2211400B4A1173114673
:1036F000097B02221143084A11730221074A117003
:103700007047000000040048CF000020D0000020D7
:1037100000040040D1000020D400002072000020EE
:10372000094840690121890408430749486107485D
:10373000006830218843054908600846C068302188
:1037400088430249C86070470010024000040048E6
:1037500010B518480078012821D11748C069002801
:1037600004D01548C0691549884206D91248007B23
:10377000042108431049087311E00F48007B4007FB
:10378000C00F002805D00C48007BFB2108400A49E7
:1037900008730949C869FEF7F1FA07494860084803
:1037A0000078012805D10449086AFEF791FA024918
:1037B000886010BD64000020D4000020EA0F0000E3
:1037C0006500002070B54848C069C5B200262020B9
:1037D000284000285DD0A807800F002859D1424812
:1037E00020308088C4B24148807B030000F02AFA70
:1037F0000805121F27281306324F00BFAA2C05D137
:103800003A48807B401C3949887302E000203749E0
:1038100088733DE000BF552C05D13448807B401CA7
:103820003249887302E000203049887330E02F4825
:10383000807B401C2D4988730846847028E000BFB7
:103840002A48807BC01E29490C540846807B401CB6
:1038500088731DE02548C470807B401C2349887311
:1038600008468078401E0978401820494978401859
:10387000FF30FF21081A401CC6B200201B49887384
:103880000846C078B04201D100F0AEF800E000BFB9
:1038900000BF80202840002824D01348C069802120
:1038A00088431149C8611148C07B002814DD0F48C6
:1038B000C07B0821091A0D48001D405C0A492031CF
:1038C000088100BF802028400028FBD00748C07B2B
:1038D000401E0649C87305E00348006880218843FC
:1038E0000149086070BD0000003801402A01002035
:1038F000AA201449087155211248417181788171BB
:103900000178C1714178017255214172AA218172F9
:103910008078401E0B49097840180A4949784018B8
:10392000FF30FF21081A401CC1B20648C1720820AE
:103930000449C873044800688021084302490860AC
:10394000704700002A0100200038014010B509200E
:10395000C00600680521C90408430921C90608609A
:103960000846406AFF21113108430921C90648620F
:103970001848806901218903084316498861E121BB
:10398000090215480068FCF703FC1449C8600D20C3
:10399000086000BF1148C069402108400028F9D0E4
:1039A0000E480068202108430C49086002211B20B2
:1039B00000F092F91B20002805DBC206D20E01217F
:1039C0009140074A116000BF002006498870887343
:1039D00010BD000000100240A80000200038014087
:1039E00000E100E02A01002010B500245B48807847
:1039F000030000F027F90B0708111A2C4053626FDF
:103A000081A3B000A8E056480078052803D0FFF74E
:103A10002BFCFFF76DFF9FE051480078052803D18C
:103A2000FFF728FCFFF764FF96E04D480078052873
:103A30000CD14A480078012803D14A484A49C86352
:103A400002E000204849C863FFF752FF84E0444881
:103A5000007805280ED10120444948703F4800787D
:103A6000012802D1FFF710F902E00020FFF70CF95E
:103A7000FFF73EFF70E03A48007805280DD13B493A
:103A80004868FDF71DF93549087038498868FDF721
:103A900017F932494870FFF72BFF5DE03048007896
:103AA000052809D1FEF7ECF82C490870FEF7FCF860
:103AB0002A494870FFF71CFF4EE029480078052886
:103AC00007D12B4800782549087000204870FFF77F
:103AD0000FFF41E02248007805280CD1012025493C
:103AE000087048701D480078234908701B484078CA
:103AF0004870FFF7FDFE2FE01948007805281CD11B
:103B0000002409E0154800782041C107C90F194A6F
:103B1000A01C1154601CC4B2082CF3DB00240AE082
:103B20000E4840782041C107C90F124A20460A308A
:103B30001154601CC4B2032CF2DB0DE0084800787D
:103B4000052807D10D480078044908700020487006
:103B5000FFF7CEFE00E000BF00BF10BD2A0100202D
:103B60000600002060EA000000040040D4000020AD
:103B7000710000203A010020B200002072000020F5
:103B800070B50246274D2A7002291CD2002017E08A
:103B90001446C440E307DB0F002B07D08400224DFE
:103BA0002C59641C8500204E745103E000248500CC
:103BB0001D4E745100241C4DEC602C61441CE0B27D
:103BC0000528E5D32CE0022915D1002007E00024C8
:103BD0008500154E745135462C61441CE0B2032813
:103BE000F5D39407A40F032C1AD10F4CE468641C7E
:103BF0000D4DEC6014E0002007E0002485000A4E23
:103C000074513546EC60441CE0B20428F5D35407E7
:103C1000640F072C04D1044C2469641C024D2C61F0
:103C200070BD0000710000204801002004490878A0
:103C3000002801DD182800DD1420014908707047B4
:103C4000A000002030B47446641E2578641CAB428A
:103C500004D3635D5B00E31830BC18471D46F8E7EA
:103C600010B5002819DB1A4A03231B02D218830857
:103C70009B00D2588307DC0EFF23A3409A438B0797
:103C80001B0E8407E40EA3401A43114B03242402A5
:103C90001B198408A4001A5118E00E4A03071B0FD1
:103CA000083B9B089B00D2588307DC0EFF23A340F0
:103CB0009A438B071B0E8407E40EA3401A43054B5F
:103CC0000407240F083CA408A4001A5110BD0000EA
:103CD00000E100E01CED00E010B5002819DB1A4AF5
:103CE00003231B02D21883089B00D2588307DC0EE3
:103CF000FF23A3409A438B071B0E8407E40EA340C7
:103D00001A43114B032424021B198408A4001A51DE
:103D100018E00E4A03071B0F083B9B089B00D25874
:103D20008307DC0EFF23A3409A438B071B0E8407F7
:103D3000E40EA3401A43054B0407240F083CA408D3
:103D4000A4001A5110BD000000E100E01CED00E0ED
:103D5000F8B504464F1EC8000838211815461E46FF
:103D6000086849683A4606239A4310D02A463346E3
:103D7000FDF724F83A46D200083AA3181A687F1EC5
:103D80005B68FCF76FFC06223B469343EED1022FA3
:103D900023D0042F11D0062F2FD12A463346FDF70A
:103DA0000DF8E36AA26AFCF75DFC2A463346FDF78C
:103DB00005F8636A226AFCF755FC2A463346FCF78D
:103DC000FDFFE369A269FCF74DFC2A463346FCF788
:103DD000F5FF63692269FCF745FC2A463346FCF788
:103DE000EDFFE368A268FCF73DFC2A463346FCF78A
:103DF000E5FF63682268FCF735FCF8BD002210B5CA
:103E0000134610460149FCF75DFC10BD0000F03F71
:103E100010B50122FDF7F6F810BD002210B51346CB
:103E200010461146FCF74EFC10BD0000F0B5C54A27
:103E300000248FB091420ADA4B005B08934206D807
:103E400001254A006D05EA4205D1002803D0FFF79D
:103E5000DFFF0FB0F0BD01252D05A94219DA03439C
:103E600008D0002910DA0120FCF776FFFFF7D5FF14
:103E70000FB0F0BD0220FCF76FFFFFF7BFFF01227C
:103E8000D20751400FB0F0BD3524E4433622FDF790
:103E9000B9F80A15AC4B1219D4180A03120BAB4926
:103EA000AB4B56182E403146594011430192321502
:103EB00012190B920022FCF7E2FB019A0446921CB5
:103EC0001003A44E000B0D467E44032860D220460A
:103ED0007368326800F014FA1CD10B98002815D0D2
:103EE000FCF761FF04460E469B4A9C4BFCF766FFBD
:103EF0000D4607469A4A9B4B20463146FCF75EFF2B
:103F00003A462B46FCF7AEFB0FB0F0BD7168306847
:103F10000FB0F0BD944A954B20462946FCF74EFF62
:103F20000022934BFCF7B6FB06460F4622462B4673
:103F300010461946FCF742FF32463B46FCF73EFF6F
:103F400006460B980F4600281DD0FCF72CFF824A2E
:103F5000824B05910490FCF731FF32463B46FCF75B
:103F600099FB22462B46FCF78AFB04460D467C4A09
:103F70007C4B05990498FCF721FF22462B46FCF761
:103F80007EFB0FB0F0BD0B46324620462946C4E00A
:103F9000012300229B072046FCF764FB02460B46E8
:103FA00020462946FCF78EFB06460F460B98FCF789
:103FB000FAFE32463B460591049010461946FCF73E
:103FC000FDFE09910C906B490198099B42180092E3
:103FD0000C9A19461046FCF7F1FE024607910A902A
:103FE000654901980B1A6548019303217844079BA2
:103FF000FFF7AEFE079B0A9AFCF7E0FE0E905F48C3
:104000000D9104217844079B0A9AFFF7A1FE099BB2
:104010000C9AFCF7D3FE019B009A1A4300920D9B69
:104020000E9AFCF71FFB009A01910C90002A4DDDBF
:104030000022D24320462946FCF7E4FF22462B46C5
:10404000FCF7BCFE00910A900B9800282BD0424A46
:10405000424B05990498FCF7B1FE07910E90019B25
:104060000C9A00990A98FCF7FDFA32463B46FCF799
:10407000A5FE079B0E9AFCF7F5FA009B0A9AFCF73F
:1040800009FB22462B46FCF7FAFA04460D46344A51
:10409000344B05990498FCF791FE22462B46FCF719
:1040A000EEFA0FB0F0BD019B0C9A0A98FCF7DAFA11
:1040B00032463B46FCF782FE009B0A9AFCF7EAFA7E
:1040C00022462B46FCF7E6FA0FB0F0BD0B9800280D
:1040D00027D0214A214B05990498FCF76FFE0791E0
:1040E000009020462946019B0C9AFCF7C8FA3246FC
:1040F0003B46FCF763FE079B009AFCF7C0FA22469A
:104100002B46FCF7BCFA04460D46154A154B05999B
:104110000498FCF753FE22462B46FCF7B0FA0FB08A
:10412000F0BD0B46204629460C9AFCF7A8FA324609
:104130003B46FCF743FE22462B46FCF7ABFA0FB09A
:10414000F0BD00000000F07F01FCFFFF645F09008C
:104150000000F03F04090000763C7935EF39EA3D74
:104160000000E0FE422EE63F555555555555D53FCA
:104170000000E03F86EBF9FF51B80600A8070000F9
:10418000FEF76CFEFDF714FAFEF7CEFDFFF7DEFB3F
:1041900055484078C107C90F5448017452484078C7
:1041A000022108404108514801764F4840780421D7
:1041B000084081084D4841744B4840780821084028
:1041C000C0084B4908704848407810210840000951
:1041D0004849087044484078C007C00F002812D0F2
:1041E0004148807901280AD1FEF7A6FFFEF77CFF3F
:1041F000FEF7B6FEFEF7ECFCFDF7A0FF03E0FFF7CD
:1042000039F8FEF771FF6EE00020FFF73FF93A49F9
:10421000087008460078012804D1FFF7DFF9002074
:10422000FFF742F90120FFF731F9334908700846DA
:104230000078012801D1FFF737F90220FFF726F9AE
:104240002D49087008460078012808D10220FFF7A0
:104250002BF9FEF707F9FDF7CFFCFEF799FA0320DB
:10426000FFF714F92449087008460078012802D1A4
:104270000320FFF719F90420FFF708F91E49087019
:104280000846007801280AD10420FFF70DF9FEF74F
:1042900083FCFEF7B7F9FDF765F8FEF7C3FA0520D2
:1042A000FFF7F4F81449087008460078012806D191
:1042B0000520FFF7F9F8FFF74BFAFFF7B7F90620EB
:1042C000FFF7E4F80C4908700846007801280AD185
:1042D0000620FFF7E9F8FEF769F9FEF78FFEFDF714
:1042E000E3FC064908708FE7A0000020D4000020FE
:1042F0000200002003000020010000200000002038
:1043000070B501250C002D051C4310D4EC4206D4D9
:10431000AC420AD4994200D070BD904270BDE942CF
:1043200017D4EB4215D4994270BD894270BDEC425E
:1043300006D5AC42F9D58B4200D070BD824270BD2B
:104340006D004C00EC4204D25C00EC4201D28B4286
:1043500070BD034C30B4FCF7D3FE30BC70BD00BF61
:104360001900120470B501250400ED074C4020D45B
:10437000441A01D2001B0919C60D4B00F2B2FF2AE4
:1043800029D01B0E2CD000020C02D31A2C43DC4087
:104390002843051910D2280A02D3401C6D0611D0FB
:1043A000761EF6058019FF2A00DA70BDC00DC00523
:1043B00070BD694000F0D0F801200543C541521C92
:1043C000761CE8E764089C40C90161408900E7D198
:1043D0000124A043E4E71B0E440200D0034870BD53
:1043E000002AFCD1C00FC00770BD00BF0000C07F15
:1043F00001230200DB050A430DD4DA4203D49A42BA
:1044000007D488427047D84214D4D94212D4884283
:10441000704780427047DA4203D59A42F9D581420B
:1044200070475B004200DA4204D24A00DA4201D20D
:104430008142704710B5024AFCF714FE10BD00BF60
:104440000900160470B5420064414B005C41120E35
:1044500039D01B0E38D0FF2A3CD0FF2B3AD0400277
:104460004902400A490A060045184E43000A090A53
:10447000D2184843ED017F3A0104731A4019190C10
:104480004318990F04D001215B0849075B1A521C9D
:10449000D80904D3401CF50301D19D0607D0FF2A9B
:1044A00008D2D50506D0E4072043401970BD012588
:1044B000A843F4E7002A01DCE00770BD2402FF20D6
:1044C0002043C00570BD1B0EFF2A03D0FF2B01D077
:1044D000E00770BDFF2645003606B54206D84D0000
:1044E000B54203D8D218FF2A00D0E7E7004870BDD4
:1044F0000000C07F01230A00DB0502430DD4DA422D
:1045000003D49A4207D481427047D94214D4D84286
:1045100012D48142704789427047DA4203D59A42E9
:10452000F9D5884270475B004A00DA4204D2420063
:10453000DA4201D2884270474840414010B5024AF1
:104540004840FCF78FFD10BD0900160470B5012529
:104550000400ED074C4022D4441A02D26C40001BE8
:104560000919C60D4B00F2B2FF2A4BD01B0E50D0DA
:1045700000020C02D31A2C43DC40A843051B05D5CE
:10458000AD0019D36D08761E521E37D0F605280AE5
:1045900001D2801970BD70416D0603D070BD6940B5
:1045A000FFF7E6FE9C4009026140490001D0401E31
:1045B00070BD0124A04370BD6D081DD001202B0CDF
:1045C00001D12D0410302B0E01D12D0208302B0FFC
:1045D00001D12D01001DAB0F01D1AD00801CEB0FEF
:1045E00001D16D00401C6D00361A121A680AF505DB
:1045F0004019012A02DB70BD002070BDC036300AB0
:10460000C00770BD1B0E440201D1FF2B00D1024830
:1046100070BD002AF0D070BD0000C07F0100000016
:10462000020000001400000064000000C800000048
:1046300090010000D0070000A9240008A924000868
:104640001D180008A9240008A9240008ED15000879
:10465000311700081D180008D916000805170008B2
:10466000291600086D17000801190008A924000880
:10467000A9240008A9240008A9240008DD180008BE
:10468000D91600080517000871160008B5170008AC
:10469000051A0008A9240008A9240008A924000874
:1046A000A9240008A9240008A9240008A9240008B6
:1046B0000403010001000000AB240008000000001A
:1046C000000000000102030406070809B92A0008D7
:1046D000E129000880807F7E7D7C7B7A79787776FF
:1046E00076757473727171706F6E6E6D6C6C6B6ACF
:1046F0006A6968686766666564646363626161606D
:10470000605F5F5E5E5D5D5C5C5B5B5A5A595958E9
:104710005857575656555555545453535252525153
:10472000515050504F4F4F4E4E4D4D4D4C4C4C4BA9
:104730004B4B4A4A4A4949494848484747474746F0
:10474000464645454544444444434343434242422C
:10475000424141418182838485868788898B8C8D03
:104760008E8F919293959697999A9C9D9FA0A2A3C4
:10477000A5A7A8AAACAEB0B2B3B5B7B9BCBEC0C20B
:10478000C5C7C9CCCED1D4D7D9DCDFE2E6E9ECF09D
:10479000F3F7FAFE0000000004FA97999999D93FBF
:1047A000AF788E1DC571CC3F9FC678D0099AC33FA4
:1047B000935555555555E53F599322942449D23F79
:1047C000DE03CB966446C73F44523EDF12F1C23F40
:1047D0000000000000000000F84700080000002072
:1047E000D4000000F8000008CC480008D4000020E5
:1047F000EC06000014010008000001001400000095
:1048000000000000640000006400000006000000DA
:104810000600000058020000580200005802000084
:10482000580200005802000058020000000000007A
:104830000000000060EA0000A69BC43B0AD7A33B2F
:104840006F12033A000000000000000000000000AA
:10485000B04600080000000000000000000000005A
:104860000001000000000000000000000000000047
:104870000000000000000000FFFF0000000000003A
:104880000000000000000000000000000000000028
:104890000000000000000000000000000000000018
:1048A00000127A0000000000000000003F065B4F8D
:1048B000666D7D077F6F004079733F76305038001A
:0C48C000000000000000000000000000EC
:020000040800F2
:10F000000000000000000000000000000000000000
:10F0100000000000000000000000000000000000F0
:10F0200000000000000000000000000000000000E0
:04000005080000B53A
:00000001FF
