:1000000019C071C3B9C39AC3A3C310C4ABC387CB10
:10001000BDC37CC490C4C4C353C4CCC3D5C3DEC366
:10002000E7C3F0C322C0F8C36FCE1F00CB00321964
:100030006400670C11241FBECFEFD1E0DEBFCDBF3F
:1000400011E0A0E0B1E0E8EEFDE102C005900D9204
:10005000A832B107D9F711E0A8E2B1E001C01D92C2
:10006000A034B107E1F7E9D4BDCECACF1F93CF9337
:10007000DF9380937C00EAE7F0E0808180648083F6
:10008000808186FDFDCF809178009091790020E0FD
:1000900030E070E0C0E0D0E010E0EAE7F0E0A8E790
:1000A000B0E022C0808186FDFDCF8D919C9111979B
:1000B000480F591F6F5F6430A9F7CA01969587955D
:1000C000280F391F7F5F743079F4EAE7F0E0808110
:1000D0008F7B80833695279536952795822F932F92
:1000E000DF91CF911F910895AE01612FDBCF82E4A4
:1000F00084B98CEB85B980E387B984EB88B98BE050
:1001000080937E008AB988E38BB9EAE7F0E08081CA
:100110008368808310927B00E5E4F0E080818D604D
:10012000808384EF87BDEEE6F0E08081826080838B
:100130001092800010928200E1E8F0E080818160FE
:10014000808310926400789408952F923F924F928A
:100150005F926F927F928F929F92AF92BF92CF9257
:10016000DF92EF92FF920F931F93DF93CF9300D014
:1001700000D0CDB7DEB78AE089831A821B828AE17C
:1001800090E004DE8B838B81813019F48AE08983CF
:1001900005C08B81882311F483E08983AA24BB24C2
:1001A000882499241C82CC240F2EFDE34F2E552445
:1001B000F02D0F2EF9E62F2E3324F02D0F2EFEE317
:1001C000EF2EFF24F02D0F2EFAE46F2E7724F02D62
:1001D0008981843009F4B1C0853018F48330C1F7C7
:1001E00077C0853009F4F0C08A3091F71B826B81AB
:1001F0008AE190E0D7DDE4E8F0E011821082F201BC
:10020000808181608083F10180818260808383E4CA
:100210002DDF8C018AE090E0C1DD9801281B390BAD
:100220001AF4309521953F4F25313105D4F0FFEF79
:100230008F3F9F07B1F0892BA1F01A828A818F31FD
:1002400080F4F701808182608083F701808181FDE5
:10025000FCCFF30110828A818F5F8A838A818F317C
:1002600080F3F7018081816080831A828A818038DF
:10027000E8F483E4FBDE5C01F70180818260808327
:10028000F701808181FDFCCF83E4F0DE9501281B1E
:10029000390BC9011AF4909581959F4FC39734F497
:1002A0008A818F5F8A838A81803818F3F701808181
:1002B0008E7F8083808182608083F701808181FDD1
:1002C000FCCFF3E0F9830F2EFEEFCF2EF02D80CF81
:1002D000F70180818E7F808383E4C8DE8C018AE011
:1002E00090E05CDD9801281B390BC9011AF4909548
:1002F00081959F4F039744F484E090E047DD882385
:1003000019F034E0398364CF1A828A81873070F41F
:10031000F701808182608083F701808181FDFCCFBD
:100320008A818F5F8A838A81873090F384E090E0AE
:1003300060E038DDF4E0F9834BCFF7018081826023
:100340008083F701808181FDFCCF83E48FDE5C0137
:10035000F701808182608083F701808181FDFCCF7D
:1003600083E484DE4C01C50188199909FFEF8B3FB6
:100370009F07DCF00697CCF490922A018092290125
:1003800090923F0180923E018AE090E0B40118DD36
:1003900084E090E0FBDC882321F484E090E061E0DD
:1003A00001DD89818F5F898313CFE4E8F0E011825A
:1003B0001082809128018F5F80932801833008F498
:1003C00007CF84E0DBD204CFE4E8F0E011821082B2
:1003D000F201808181608083F1018081826080836D
:1003E0001A82F7018081816080838A81813F08F0D1
:1003F00057C00F2EF0EFDF2EF02D83E437DE8C0197
:1004000088E090E0CBDC9801281B390B1AF430957A
:1004100021953F4F233031051CF4029708F040C06E
:10042000A895F301108283E421DE5C01F70180814D
:1004300082608083F701808181FDFCCF83E416DE3A
:100440004C018091290190912A019401281B390BBC
:10045000C9011AF4909581959F4F853691054CF00E
:10046000C501881999093FEF8F3F930714F0029750
:10047000BCF08A81D81669F4C501881999091AF463
:10048000909581959F4F0A9724F08A81C81608F0AD
:10049000D3948A818F5F8A838A81D81608F0ADCF82
:1004A0008091290190912A018A159B0528F4F70172
:1004B00080818062808304C0F70180818F7D80838A
:1004C000F7016081607285E090E06CDC8091290129
:1004D00090912A019501281B390BC9013FEF8C39F6
:1004E000930784F0853691056CF4809128018F5F25
:1004F0008093280193E09983853008F469CE85E0E4
:100500003DD266CEF701808182608083F7018081D1
:1005100081FDFCCF8A818F5FFC81F80FFC8383E42F
:10052000A5DD5C01881999092FEF8C3E92070CF428
:100530003DC04597DCF588E090E0B50141DC84E002
:1005400090E024DC823020F484E090E062E02ADC59
:10055000EEE3F0E080818E7F80838091290190918D
:100560002A01B501681B790B1AF4709561957F4FCC
:100570006F50704070933A0160933901F59B0BC046
:1005800080913E0190913F01860F971F9093380113
:100590008093370118C080913E0190913F01861BE6
:1005A000970B90933801809337010DC080912801FB
:1005B0008F5F80932801853018F085E0DFD108CE69
:1005C00035E0398305CE8C810F900F900F900F90FE
:1005D000CF91DF911F910F91FF90EF90DF90CF901F
:1005E000BF90AF909F908F907F906F905F904F9053
:1005F0003F902F900895382FF894EBE2F0E080813F
:100600008F7B808384EF91E00197F1F728E044EF3E
:1006100051E030FF07C0808180648083CA01019768
:10062000F1F706C080818F7B8083CA010197F1F7C3
:10063000215011F03695EDCFEBE2F0E0808180643F
:10064000808384EF91E00197F1F7789408950F93F8
:100650001F938C0160E177E248DB862F805DCBDF62
:10066000C80168EE73E041DBCB016AE070E03DDB7E
:10067000805DC1DFC80164E670E037DBCB016AE072
:1006800070E033DB805DB7DFC8016AE070E02DDB2E
:10069000CB016AE070E029DB805DADDFC8016AE074
:1006A00070E023DB805DA7DF1F910F910895CF934A
:1006B000DF93EC018881882329F09DDF21968881D2
:1006C0008823D9F7DF91CF910895F894E4E5F0E01D
:1006D0008081877F8083E0E6F0E088E180838DE998
:1006E0008083789408951F920F920FB60F92112471
:1006F0008F939F93EF93FF93E4E8F0E080819181E3
:100700009695879590938B0080938A0088EE93E06E
:10071000909389008093880011821082F09B05C01D
:10072000E5E2F0E0808182608083FF91EF919F910C
:100730008F910F900FBE0F901F9018951F920F92E0
:100740000FB60F9211240F900FBE0F901F901895A7
:100750001F920F920FB60F9211240F900FBE0F90A1
:100760001F9018951F920F920FB60F9211240F90A1
:100770000FBE0F901F9018951F920F920FB60F92F9
:1007800011240F900FBE0F901F9018951F920F927B
:100790000FB60F9211240F900FBE0F901F90189557
:1007A0001F920F920FB60F9211240F900FBE0F9051
:1007B0001F9018951F920F920FB60F9211240F9051
:1007C0000FBE0F901F9018951F920F920FB60F92A9
:1007D00011240F900FBE0F901F9018951F920F922B
:1007E0000FB60F9211240F900FBE0F901F90189507
:1007F0001F920F920FB60F9211240F900FBE0F9001
:100800001F9018951F920F920FB60F9211240F9000
:100810000FBE0F901F9018951F920F920FB60F9258
:1008200011240F900FBE0F901F9018951F920F92DA
:100830000FB60F9211242F938F939F93AF93BF9373
:10084000EF93FF9399B180916D00892369F520E0C2
:10085000A9E2B0E0EDE6F0E004C09C91808189233C
:1008600019F52F5F2530C9F72436F1F0B09912C081
:10087000AAE4B0E0EC91F0E08091840090918500D2
:10088000EE0FFF1FE15DFE4F918380838C918F5FA0
:100890008C9302C081E086BB109285001092840088
:1008A0008AB5843008F01ABCFF91EF91BF91AF91E7
:1008B0009F918F912F910F900FBE0F901F901895C1
:1008C0001F920F920FB60F9211248F93EF93FF9305
:1008D000EEE3F0E080818860808380818B7F80837D
:1008E000EBE4F0E080818F5F80838081883730F097
:1008F0001BBCEEE3F0E080818D7F8083FF91EF9160
:100900008F910F900FBE0F901F9018951F920F920E
:100910000FB60F9211248F93EF93FF93E5E2F0E06F
:1009200080818D7F8083FF91EF918F910F900FBE1B
:100930000F901F9018951F920F920FB60F921124CF
:100940008F939F93EF93FF93F09B05C0E5E2F0E058
:10095000808182608083809184009091850088519D
:100960009C4F9093890080938800FF91EF919F9115
:100970008F910F900FBE0F901F9018950F931F939C
:10098000CF93DF93082FF894E4E5F0E08081877F30
:100990008083E0E6F0E088E1808381EF80837894D3
:1009A0001ABC80912B018F5F80932B0187E090E030
:1009B000EDD9182F90E04096602FF4D91F5F84E0A6
:1009C00090E060E0EFD9183008F010E087E090E0A8
:1009D000612FE8D9EEE3F0E080818E7F808320E014
:1009E00030E0A5E2B0E0CAE4D0E08C9180648C9362
:1009F000808182608083808181FDFDCF18828C910F
:100A00008F7B8C93808182608083808181FDFDCF8C
:100A100018822F5F3F4F2837310539F788E78ABDA5
:100A2000EEE3F0E0808182608083808181FDFDCFF4
:100A3000DF91CF911F910F910895CDB7DEB7A197A8
:100A4000DEBFCDBFF89488E10FB6F89480936000C4
:100A5000109260000FBEE1E6F0E080E8808383E062
:100A6000808345DB04B600FE09C0E4E5F0E0808148
:100A70008170808388E190E060E094D904B603FE41
:100A800036C0F894E4E5F0E08081877F8083E0E67B
:100A9000F0E088E1808381EF80837894E4E5F0E002
:100AA0008081877F808389E190E070D9682F6F5FB4
:100AB00089E190E077D988E190E068D98B3090F0B7
:100AC00082E15CDF80912D01813089F410922D014B
:100AD000FCDDEEE3F0E0808182608083808181FD37
:100AE000FDCF05C0682F6F5F88E190E05BD9F89477
:100AF000E4E5F0E08081877F8083E0E6F0E088E154
:100B0000808381EF8083789483E090E03FD98C36B6
:100B100021F083E090E06CE645D98AE190E036D997
:100B2000823020F08AE190E061E03CD967D7182F4D
:100B3000823209F480C0833248F4843159F1813221
:100B400009F443C0823109F0C7C05AC0813439F07A
:100B5000843409F48BC0843209F0BEC0A2C0E5E23F
:100B6000F0E0808180648083EEE3F0E08081846047
:100B70008083808182FDFDCFE5E2F0E080818F7B84
:100B80008083EEE3F0E0808184608083808182FD59
:100B9000FDCFBBC590E0A5E2B0E0EEE3F0E08C91C4
:100BA00080648C93808184608083808182FDFDCF0E
:100BB0008C918F7B8C93808184608083808182FD87
:100BC000FDCF9F5F923059F7A0C590E0A5E2B0E05D
:100BD000EEE3F0E08C9180648C938081846080836C
:100BE000808182FDFDCF8C918F7B8C93808184608E
:100BF0008083808182FDFDCF9F5F933059F785C54B
:100C000090E0A5E2B0E0EEE3F0E08C9180648C939C
:100C1000808184608083808182FDFDCF8C918F7B79
:100C20008C93808184608083808182FDFDCF9F5F73
:100C3000943059F76AC590E0A5E2B0E0EEE3F0E049
:100C40008C9180648C93808184608083808182FD1C
:100C5000FDCF8C918F7B8C93808184608083808199
:100C600082FDFDCF9F5F953059F749C590E0A5E221
:100C7000B0E0EEE3F0E08C9180648C93808184603E
:100C80008083808182FDFDCF8C918F7B8C938081CE
:100C900084608083808182FDFDCF9F5F963059F70D
:100CA00039C590E0A5E2B0E0EEE3F0E08C9180641D
:100CB0008C93808184608083808182FDFDCF8C91C4
:100CC0008F7B8C93808184608083808182FDFDCFC7
:100CD0009F5F973059F7E7C420E030E0A5E2B0E02D
:100CE000EEE3F0E08C9180648C938081846080835B
:100CF000808182FDFDCF8C918F7B8C93808184607D
:100D00008083808182FDFDCF2F5F3F4F2A303105E8
:100D100049F7FAC490E08F709070892B21F48DE030
:100D20006ADC8AE068DC80912E0190E02FD8809305
:100D30003D01C701BCDC80913D0182958F708A30F6
:100D400018F0895C58DC02C0805D55DC20913D01C3
:100D5000822F90E08F7090700A972CF0822F8F7006
:100D6000895C49DC04C0822F8F70805D44DCC8013F
:100D70009EDC80912E018F5F80932E01803450F293
:100D80008DE039DC8AE037DC86E091E090DC8DE0B4
:100D900032DC8AE030DCFFCF31D68134E9F7E5E29E
:100DA000F0E0808180648083EEE3F0E08081846005
:100DB0008083808182FDFDCFE5E2F0E080818F7B42
:100DC00080831CD68431E9F7E5E2F0E0808180641D
:100DD0008083EEE3F0E0808184608083808182FD07
:100DE000FDCFE5E2F0E080818F7B8083EDE3F0E0F2
:100DF000808181608083E9E6F0E080818260808389
:100E0000EEE3F0E080818160808383E42FD98C0160
:100E10000F2EFEE3EF2EFF24F02DD7018C9184607E
:100E20008C93F701808182FDFCCF83E41FD9801B66
:100E3000910B1AF4909581959F4F449774F3EEE3CC
:100E4000F0E080818E7F8083A5E2B0E08C918064A9
:100E50008C93808184608083808182FDFDCF8C9122
:100E60008F7B8C93808184608083808182FDFDCF25
:100E7000EDCF8AD6C3D5182F8434D9F386E090E01D
:100E8000612F90D722DCEEE3F0E0808182608083E6
:100E9000808181FDFDCF1B8E1A8E198E188E1F8AC0
:100EA000CC24DD2476011B8A1C8A1D8A1E8A1F869B
:100EB000188A198A1A8A0F2EFBEF8F2EFEEB9F2EAF
:100EC000FFE1AF2EF0E0BF2EF02D0F2EFBEF4F2EE7
:100ED000FEEB5F2EFFE16F2EF0E07F2EF02D1B86E4
:100EE0001C861D861E861F82188619861A861B82FE
:100EF0001C821D821E8202E00F2EF0E62F2E33246C
:100F0000F02D812F90E09C01207130703D8F2C8F4F
:100F1000A895073009F4C7C1083030F4023071F0E9
:100F2000063009F0BCC3CEC0003109F458C301310A
:100F300009F48BC0083009F0B2C3E5C1F894A4E508
:100F4000B0E08C91877F8C9328E1F101208331EF11
:100F5000308378941ABCF9D8382F90E0A5E2B0E03D
:100F60008C9180648C93EEE3F0E0808184608083D8
:100F7000AEE3B0E08C9182FDFBCFE5E2F0E0808152
:100F80008F7B80838C9184608C93AEE3B0E08C91F6
:100F900082FDFBCF9F5F923009F7EAE4F0E0208109
:100FA000108280912D018130C1F410922D01F894AE
:100FB000E4E5F0E08081877F8083E8E1D101EC9374
:100FC000FDE9FC937894AEE3B0E08C9182608C9361
:100FD000EEE3F0E0808181FDFBCF832F90E068E7B6
:100FE00070E058D6488D598D480F591F598F488F3A
:100FF0008A8D9B8D820F911D9B8F8A8F2091390145
:1010000030913A0140E050E068E17CE38FE190E00C
:10101000A2D6822F932FA42FB52F8F87988BA98BC1
:10102000BA8BE8E2F0E02591359145915491809199
:10103000290190912A0190933C0180933B01490141
:101040005A0129013A0101E163CFF894A4E5B0E027
:101050008C91877F8C9328E1F10120833DE93083D7
:101060007894AEE3B0E08C9183FF1EC08C91877FB3
:101070008C938C9180FF05C0E88DF98D3196F98FA6
:10108000E88F288D398D48E32034340768F02054E8
:101090003843398F288F8EE090E080D6BC016F5F97
:1010A0007F4F8EE090E08CD6A895AEE3B0E08C91B7
:1010B00084608C93EEE3F0E0808182FDFBCFA89505
:1010C00006E026CFA895AEE3B0E08C9184FF34C053
:1010D0008C918F7E8C931ABCEA8DFB8D3196FB8FA1
:1010E000EA8F21E0E23CF20738F1E25CF140FB8F4D
:1010F000EA8F3F893F5F3F8B3831F0F08CE090E022
:101100004DD601969A8389838CE090E069817A813B
:1011100057D689819A816FE170E0E7D5892B59F420
:1011200084E090E060E03ED688E190E060E03AD66E
:101130001F8A02E0EDCE1F8AD1018C9180648C93CE
:10114000EC8DFD8DEF2B31F080E490D76C01EE2417
:10115000FF2405C081E48AD76C01EE24FF241132FC
:1011600011F0123119F5FBE9CF16F1E0DF06F0E0DE
:10117000EF06F0E0FF0620F4CC24DD24760116C053
:10118000C701B6012FEF37E040E050E095D5665635
:101190007E4C8C40904026E636E040E050E0B9D5E9
:1011A000822F932FA42FB52F6C017D01113411F0E4
:1011B000143189F429E2C216D104E104F10400F5E6
:1011C0000F2EFAE0CF2EF0E0DF2EF0E0EF2EF0E071
:1011D000FF2EF02D28C0113211F0123189F433E3C3
:1011E000C316D104E104F10458F40F2EFAE0CF2E17
:1011F000F0E0DF2EF0E0EF2EF0E0FF2EF02D15C036
:1012000048EDC41647E0D40640E0E40640E0F406AA
:1012100050F00F2EFFEFCF2EF7E0DF2EF0E0EF2E95
:10122000F0E0FF2EF02D143111F0123161F48FEF48
:1012300097E0A0E0B0E09C01AD012C193D094E09FA
:101240005F0969017A0134E1C316D104E104F104B4
:10125000E8F480912C01813061F48B859C85AD850B
:10126000BE850196A11DB11D8B879C87AD87BE876A
:1012700017C02F81388549855A852F5F3F4F4F4FC3
:101280005F4F2F83388749875A870AC010922C01F5
:101290001B861C861D861E861F82188619861A8646
:1012A000A89507E035CEA895C701B60128EE33E032
:1012B00040E050E001D52F85388949895A8929D5E0
:1012C00040E050E0AEE3B0E08C9185FF0DC080912E
:1012D0003E0190913F01A0E0B0E069017A01C80EA3
:1012E000D91EEA1EFB1E0CC080913E0190913F0169
:1012F000A0E0B0E06C017D01C21AD30AE40AF50A4D
:10130000A89508E005CEA895C601EB89FC898E1B3F
:101310009F0B1AF4909581959F4FC2972CF41B82D6
:101320001C821D821E822FC02B813C814D815E81DB
:101330002F5F3F4F4F4F5F4F2B833C834D835E8327
:1013400020533B464040504010F088E017DB80912E
:101350002D018130C1F410922D01F894A4E5B0E084
:101360008C91877F8C9328E1F10120833DE93083C4
:101370007894AEE3B0E08C9182608C93EEE3F0E081
:10138000808181FDFBCFECE2F0E06591749180E01B
:1013900090E0A501940190D4BC0188279927861A72
:1013A000970AA80AB90AE0E3F0E06591749180E039
:1013B00090E0A301920180D4BC0188279927461AA6
:1013C000570A680A790AAEE3B0E08C9180FF14C036
:1013D000EEE2F0E085919491A0E0B0E0880E991ED5
:1013E000AA1EBB1EE2E3F0E085919491A0E0B0E07C
:1013F000480E591E6A1E7B1E83E438D69C0140E0CD
:1014000050E0EEE3F0E0808185FF54C0D501C401D7
:10141000072E7EE0B695A795979587957A95D1F793
:10142000702D820F931FA41FB51FA3019201012EDF
:101430001EE056954795379527951A95D1F7102DAB
:10144000821B930BA40BB50B8B8B9C8BAD8BBE8B34
:10145000808180FD15C0D701C6010197A109B1099E
:101460002B893C894D895E89281739074A075B0714
:1014700038F480818160808331E030932C016EC02C
:10148000AEE3B0E08C9180FF69C0D701C601019640
:10149000A11DB11D2B893C894D895E898217930757
:1014A000A407B50708F05AC0AEE3B0E08C918E7F78
:1014B0008C9354C0D301C201072E7EE0B695A79548
:1014C000979587957A95D1F7702D820F931FA41F5A
:1014D000B51FA5019401012E1EE05695479537953D
:1014E00027951A95D1F7102D821B930BA40BB50BE2
:1014F0008B8B9C8BAD8BBE8BAEE3B0E08C9180FF71
:1015000014C0D701C6010197A109B1092B893C89F3
:101510004D895E89281739074A075B0730F4AEE327
:10152000B0E08C918E7F8C9319C0EEE3F0E0808167
:1015300080FD14C0D701C6010196A11DB11D2B89E4
:101540003C894D895E8982179307A407B50730F45B
:1015500080818160808331E030932C01A895809157
:101560002D018130C1F410922D01F894A4E5B0E072
:101570008C91877F8C9328E1F10120833DE93083B2
:101580007894AEE3B0E08C9182608C93EEE3F0E06F
:10159000808181FDFBCF2F81388549855A8526566C
:1015A0003D404040504018F091E090932C012B8535
:1015B0003C854D855E8526563D404040504010F0AC
:1015C00000E10BC0ABE2B0E08C9188608C93EDE35E
:1015D000F0E080818160808301E1A89599CCA89595
:1015E000F894A4E5B0E08C91877F8C9328E1F10119
:1015F000208331EF30837894AEE3B0E08C918E7F1E
:101600008C93E5E2F0E080818D7F8083ABE2B0E0F7
:101610008C91877F8C93EDE3F0E080818E7F8083D7
:101620008C91877F8C9385B7806685BF8F7D85BFC2
:10163000A3E5B0E08C91897F84608C938C9181606C
:101640008C9388958C918E7F8C938C918E7F8C93CC
:10165000EBE2F0E0808188608083AEE3B0E08C91C3
:1016600084608C93EEE3F0E0808182FDFBCFADE3FC
:10167000B0E08C9181608C93F894E4E5F0E0808197
:10168000877F8083E8E1D101EC93FDE9FC937894B6
:10169000A8951B821C821D821E8201E139CC8CEC34
:1016A0006DD9A89535CC86E080936F0016BCEBE22F
:1016B000F0E080818D7F8083EAE2F0E080818064C9
:1016C00080838DE098D78AE096D78DE094D78AE022
:1016D00092D780E191E0EBD78DE08DD78AE08BD770
:1016E0008AE191E0E4D710922E0180E00F2EF0E025
:1016F000EF2EF1E0FF2EF02D03E011E00BCB86E0A2
:1017000080936F0016BC48CB11E486E080936F0095
:1017100016BCC1CB86E080936F0016BCAACB1F928B
:101720000F920FB60F9211248F93EF93FF93EEE376
:10173000F0E0808180618083EAE4F0E080818F5F67
:10174000808380818E3670F0F894E4E5F0E080814B
:10175000877F8083E0E6F0E088E180838DE9808305
:1017600078941ABCFF91EF918F910F900FBE0F905C
:101770001F9018954F925F926F927F928F929F92D7
:10178000AF92BF92CF92DF92EF92FF920F931F938F
:10179000CF93DF9310E000E055240F2EF6E46F2E78
:1017A0007724F02DCEE3D0E0AA24BB246501882461
:1017B00099240F2EFFE2EF2EF1E0FF2EF02D4424AE
:1017C0004394F3011082888184608883888182FD3C
:1017D000FDCFF894B601A5019401C901880F991FA6
:1017E000F701E80FF91F80819181A0E0B0E0480F78
:1017F000591F6A1F7B1F118210822F5F3F4F2430B9
:10180000310559F7DB01CA018155934CA040B04026
:101810008F54934CA040B04028F41F5F143018F050
:10182000542C01C00F5F7894033010F4143048F248
:10183000852DDF91CF911F910F91FF90EF90DF9059
:10184000CF90BF90AF909F908F907F906F905F9060
:101850004F9008958F929F92AF92BF92CF92DF9256
:10186000EF92FF920F931F93DF93CF9300D000D09E
:10187000CDB7DEB7D82E1A8219821C821B82EAE20B
:10188000F0E0808182608083808181608083CC24CD
:10189000882499240F2EFBE2EF2EFF24F02DAA249A
:1018A000BB240EE310E081E4D81631F4F701808107
:1018B00082608083950105C0F7018081816080830B
:1018C0009501F801808184608083F801808182FD28
:1018D000FCCF2F5F3F4F2230310599F78D2DC6D3B6
:1018E0009A838983F1E4DF1631F4F70180818D7FDB
:1018F0008083950105C0F70180818E7F80839501EB
:10190000F801808184608083F801808182FDFCCFB2
:101910002F5F3F4F2230310599F78D2DA7D39C8340
:101920008B83F801808184608083F801808182FD4F
:10193000FCCF29813A818B819C81281B390B1AF4B9
:10194000309521953F4F2C5B324014F0C39412C068
:1019500029813A818B819C81281B390B1AF430959F
:1019600021953F4FC9018E599240459714F48394B5
:1019700001C0939482E0891538F0E3E0EC1520F083
:10198000E81508F090CF05C0F3E0F81510F090E0EE
:1019900001C091E083E08C1508F494E0E0E4DE16E9
:1019A00019F49295907F0EC0F1E4DF1659F4EAE243
:1019B000F0E080818D7F8083EBE2F0E080818D7F9D
:1019C00080830AC0EAE2F0E080818E7F8083EBE2D0
:1019D000F0E080818E7F8083892F0F900F900F9091
:1019E0000F90CF91DF911F910F91FF90EF90DF90BB
:1019F000CF90BF90AF909F908F9008956F927F92FD
:101A00008F929F92AF92BF92CF92DF92EF92FF920E
:101A10000F931F93DF93CF9300D0CDB7DEB781E054
:101A200089831A821092800010928200E1E8F0E02F
:101A300080818160808391E00BE210E00F2EF8E658
:101A4000CF2EDD24F02D0F2EFDE6EF2EFF24F02DFE
:101A50000F2EF3E08F2EF02D7724689472F80F2E5E
:101A6000FAE2AF2EBB24F02D662463949924689487
:101A700091F8923069F1933020F4913009F06EC002
:101A800007C0933009F444C0943009F067C04CC0DB
:101A9000F801808180648083F60180818460808386
:101AA000F70180818064808365DE882319F08A8154
:101AB0008E5F8A83F70180818F7B8083F60180812E
:101AC0008B7F8083F80180818F7B8083992D46C036
:101AD000F801808180688083F60180818460808342
:101AE000F70180818068808345DE882319F08A8130
:101AF000805E8A83F70180818F7B8083F6018081FD
:101B00008B7F8083F80180818F778083982D26C01A
:101B10008A8181FF02C0972D21C081E49BDE9A81DA
:101B2000980F9A83972D1AC08A8185FD05C080E49D
:101B300091DE9A81980F9A83F50180818D7F808351
:101B4000F80180818D7F8083F50180818E7F808385
:101B5000F80180818E7F80831982962D8981882368
:101B600009F087CF8A810F900F90CF91DF911F915D
:101B70000F91FF90EF90DF90CF90BF90AF909F902C
:101B80008F907F906F900895CF92DF92FF920F9386
:101B90001F93DF93CF930F92CDB7DEB781E0898398
:101BA00069818AE190E0FED0E5E2F0E08081806426
:101BB0008083EEE3F0E0808182608083808181FD1C
:101BC000FDCFE5E2F0E080818F7B8083109285007D
:101BD00010928400EDE3F0E0808181608083E9E68B
:101BE000F0E0808182608083EEE3F0E080818160BC
:101BF0008083FF240EE310E00F2EFAE4CF2EDD24C5
:101C0000F02DF801808182608083F801808181FD60
:101C1000FCCFF394F6011082FBE3FF1518F0EEDE23
:101C2000843421F480EFF81661F71DC0EEE3F0E094
:101C300080818E7F8083198269818AE190E0B2D0B1
:101C40009F2D96959695E9F0EEE3F0E0AAE4B0E0DA
:101C5000808182608083808181FDFDCF91501C92C4
:101C60009923B1F70EC0EEE3F0E080818E7F808390
:101C7000198269818AE190E095D09F2D969596957D
:101C8000E3CF0F90CF91DF911F910F91FF90DF90E5
:101C9000CF9008955527002480FF02C0060E571FDD
:101CA000660F771F6115710521F09695879500974E
:101CB00099F7952F802D0895FF27EE27BB27AA2798
:101CC00060FF04C0A20FB31FE41FF51F220F331FD4
:101CD000441F551F969587957795679589F70097C7
:101CE000760771F7CF01BD010895AA1BBB1B51E117
:101CF00007C0AA1FBB1FA617B70710F0A61BB70B7C
:101D0000881F991F5A95A9F780959095BC01CD0120
:101D10000895A1E21A2EAA1BBB1BFD010DC0AA1F2C
:101D2000BB1FEE1FFF1FA217B307E407F50720F044
:101D3000A21BB30BE40BF50B661F771F881F991FBF
:101D40001A9469F760957095809590959B01AC0108
:101D5000BD01CF01089597FB092E05260ED057FD32
:101D600004D0D7DF0AD0001C38F450954095309548
:101D700021953F4F4F4F5F4F0895F6F7909580950F
:101D8000709561957F4F8F4F9F4F0895F999FECFC2
:101D90001FBA81BDF89A992780B50895A8E1B0E0EF
:101DA00042E013C0262FF999FECF1FBA1FBA81BD9A
:101DB00020BD0FB6F894FA9AF99A0FBE01960895CD
:101DC000F1DF272FF0CFDC01862FE82FF999FECF26
:101DD0001FBA05C0E1BDF89AE39500B40D924150D9
:101DE000C8F70895F894FFCF3078003B20002A2AE6
:101DF0002A454E442A2A2A002A2A2A2A2A2A2A2A14
:101E00002A00454550524F4D2064756D703A0000D0
:101E1000FFFFFFFFFFFFFFFFFFFFFFFFFFFFFFFFD2
:101E2000FFFFFFFFFFFFFFFFFFFFFFFFFFFFFFFFC2
:101E3000FFFFFFFFFFFFFFFFFFFFFFFFFFFFFFFFB2
:101E4000FFFFFFFFFFFFFFFFFFFFFFFFFFFFFFFFA2
:101E5000FFFFFFFFFFFFFFFFFFFFFFFFFFFFFFFF92
:101E6000FFFFFFFFFFFFFFFFFFFFFFFFFFFFFFFF82
:101E7000FFFFFFFFFFFFFFFFFFFFFFFFFFFFFFFF72
:101E8000FFFFFFFFFFFFFFFFFFFFFFFFFFFFFFFF62
:101E9000FFFFFFFFFFFFFFFFFFFFFFFFFFFFFFFF52
:101EA000FFFFFFFFFFFFFFFFFFFFFFFFFFFFFFFF42
:101EB000FFFFFFFFFFFFFFFFFFFFFFFFFFFFFFFF32
:101EC000FFFFFFFFFFFFFFFFFFFFFFFFFFFFFFFF22
:101ED000FFFFFFFFFFFFFFFFFFFFFFFFFFFFFFFF12
:101EE000FFFFFFFFFFFFFFFFFFFFFFFFFFFFFFFF02
:101EF000FFFFFFFFFFFFFFFFFFFFFFFFFFFFFFFFF2
:101F0000FFFFFFFFFFFFFFFFFFFFFFFFFFFFFFFFE1
:101F1000FFFFFFFFFFFFFFFFFFFFFFFFFFFFFFFFD1
:101F2000FFFFFFFFFFFFFFFFFFFFFFFFFFFFFFFFC1
:101F3000FFFFFFFFFFFFFFFFFFFFFFFFFFFFFFFFB1
:101F4000FFFFFFFFFFFFFFFFFFFFFFFFFFFFFFFFA1
:101F5000FFFFFFFFFFFFFFFFFFFFFFFFFFFFFFFF91
:101F6000FFFFFFFFFFFFFFFFFFFFFFFFFFFFFFFF81
:101F7000FFFFFFFFFFFFFFFFFFFFFFFFFFFFFFFF71
:101F8000FFFFFFFFFFFFFFFFFFFFFFFFFFFFFFFF61
:101F9000FFFFFFFFFFFFFFFFFFFFFFFFFFFFFFFF51
:101FA000FFFFFFFFFFFFFFFFFFFFFFFFFFFFFFFF41
:101FB000FFFFFFFFFFFFFFFFFFFFFFFFFFFFFFFF31
:101FC000FFFFFFFFFFFFFFFFFFFFFFFFFFFFFFFF21
:101FD000FFFFFFFFFFFFFFFFFFFFFFFFFFFFFFFF11
:101FE000FFFFFFFFFFFFFFFFFFFFFFFFFFFFFFFF01
:101FF000FFFFFFFFFFFFFFFFFFFFFFFFFFFFFFFFF1
:00000001FF
